S01A0000737465616D5F6465636B5F626F6F745F72612E73726563B5
S31500000000C0430020A951000019500000A55100006E
S31500000010A5510000A5510000A5510000A551000002
S31500000020000000000000000000000000A5510000D4
S31500000030A551000000000000A5510000A5510000D8
S3150000004031290000612900000000000000000000C6
S31500000050000000000000000000000000000000009A
S31500000060000000000000000000000000000000008A
S31500000070000000000000000000000000000000007A
S31500000080000000000000000000000000000000006A
S31500000090000000000000000000000000000000005A
S315000000A0000000000000000000000000000000004A
S315000000B0000000000000000000000000000000003A
S315000000C0000000000000000000000000000000002A
S315000000D0000000000000000000000000000000001A
S315000000E0000000000000000000000000000000000A
S315000000F000000000000000000000000000000000FA
S3150000010000000000000000000000000000000000E9
S3150000011000000000000000000000000000000000D9
S3150000012000000000000000000000000000000000C9
S3150000013000000000000000000000000000000000B9
S3150000014000000000000000000000000000000000A9
S315000001500000000000000000000000000000000099
S315000001600000000000000000000000000000000089
S315000001700000000000000000000000000000000079
S315000001800000000000000000000000000000000069
S315000001900000000000000000000000000000000059
S315000001A00000000000000000000000000000000049
S315000001B00000000000000000000000000000000039
S315000001C0FFFFFFFFFFFFFFFFFFFFFFFFFFFFFFFF39
S315000001D0FFFFFFFFFFFFFFFFFFFFFFFFFFFFFFFF29
S315000001E0FFFFFFFFFFFFFFFFFFFFFFFFFFFFFFFF19
S315000001F0FFFFFFFFFFFFFFFFFFFFFFFFFFFFFFFF09
S3150000020010B5054C237833B9044B13B1044800E00C
S3150000021000BF0123237010BD080700200000000066
S315000002207457000008B5034B1BB10349034800E0AF
S3150000023000BF08BD000000000C0700207457000036
S315000002400E2370B5134D0B700E46044602F0F2FEF7
S315000002506B782A789A421BD0A44603EBC30405EBBD
S3150000026084040C3405EB030E0FCCACE80F000FCC66
S31500000270ACE80F009EF802E02368CCF8003086F860
S3150000028000E06B780133DBB2092B88BF00236B706B
S31500000290002070BD28070020F8B58B78304E03701B
S315000002A0CA7802F07F02C2700A6A8261F25C012A91
S315000002B04AD00A780C46012A054603D00221294A6B
S315000002C022F8131031787278114336D000210122BA
S315000002D02548264F20F81310F25425484FF40C7287
S315000002E027F8131004F0D3FF2378012B02D1002640
S315000002F03046F8BD287802F027FA06460028F7D1DE
S315000003002146284603F026FC2146287802F0AEFA5C
S31500000310287802F0BBFD287803F0F8FB402817D0B8
S315000003202378012BE3D02A78304637F812309BB277
S3150000033043F0100327F81230F8BD4FF4BA720D4897
S3150000034004F0A5FF2B78C1E740F2DD563046F8BD34
S315000003500A2002F0E9FA287802F018FDE0E700BF6B
S31500000360D40A0020D00A0020240700209C08002080
S31500000370A00800202807002070B54FF0060C0C4698
S3150000038003782E4E2E4A36F8131084F802C032F83F
S3150000039013208EB092B2002A3FD036F813208DF883
S315000003A0203093B2012B02D100200EB070BD002682
S315000003B005462670684602F00BFE802831D0C0281C
S315000003C00ABF022366706370287801F073FE00F09E
S315000003D07003202B2BD011D9302B25D02F2B05D8ED
S315000003E00020184B1B88E3700EB070BD602B02D046
S315000003F00AD9702BF4D10423A370F1E7D3B1102BE3
S31500000400EED10123A370EBE700F060004028F2D0A4
S315000004100C4B00201B88E370E6E740F2DC500EB080
S3150000042070BD01236370CFE70323A370D8E70223CF
S31500000430A370D5E70623A370D2E700BFD00A002039
S315000004409C080020DE0E002070B50546007802F0FC
S31500000450A3F9C0B92B780E4A0E4ED05436F81320A5
S31500000460044692B2012A07D100220B49204621F800
S31500000470132026F8132070BD03F044F9287800F005
S3150000048075FB2B78F0E74FF4BC64204670BD00BFC7
S31500000490D40A0020D00A00209C080020F0B583B0C2
S315000004A00E46174601A942780546FFF765FF18B9BB
S315000004B09DF80630032B04D040F2DC54204603B0EE
S315000004C0F0BD04463A463146284600F04BF8D5289A
S315000004D004D0FF28F0D0204603B0F0BD40F2DD5432
S315000004E0ECE700BFF0B583B00E46174601A9427887
S315000004F00546FFF741FF18B99DF80630032B04D0D7
S3150000050040F2DC54204603B0F0BD04463A4631467C
S31500000510284600F04FF8D52804D0FF28F0D0204612
S3150000052003B0F0BD40F2DD54ECE700BF70B582B019
S315000005300E46427801A90546FFF71EFF18B99DF839
S315000005400630032B04D040F2DC54204602B070BDC6
S315000005500446B1B22878A98002F0B8FC204602B061
S3150000056070BD00BF104B90F800C033F81C309BB232
S31500000570022B01D0002070470C4B1B88012B10D09A
S3150000058000B54FF0010E8FB0094B10466A468DF844
S3150000059020C0A3F800E002F0E5FD00200FB05DF8F2
S315000005A004FBD520704700BFD00A00205811002058
S315000005B08411002030B5204B0446007899B033F8FA
S315000005C010308DF848009BB2022B02D0002019B0E3
S315000005D030BD0D4671B1194B1B88012B27D0012464
S315000005E0174B294610460AAA1C8002F077FD002008
S315000005F019B030BD002AEED1A3880AA8CBB102F00B
S3150000060009FB00258D22217804AB0C348DF80410EB
S3150000061094E8030083E80300082001A90395ADF8D8
S3150000062008508DF8072002F0E3FC2846CFE7D520D6
S31500000630CDE702F0B7FCE4E7D00A0020581100200D
S31500000640841100202DE9F0410446154610460F4658
S31500000650214601F0D9F92146284601F085FC2146BC
S31500000660284601F0BBFCDFF84C802146284601F005
S3150000067003FD2146284601F01FFA58F82460A6B16A
S315000006800B4B214653F8243028463361B78401F0DA
S31500000690F9FE0022014658F824004368F184114609
S315000006A0C4839847002348F82430BDE8F08100BF92
S315000006B0F00B0020D80A002091F820104FEAD00C49
S315000006C0104A01EB810101EB81010CF0100C00F0E6
S315000006D00F00012302EB81024CEA000C03E00A2B17
S315000006E002F10A020BD0518998B2012903F10103E4
S315000006F0F5D1918901F01F018C45F0D17047FF209B
S31500000700704700BF280B00200020704708B501F095
S31500000710DFF9C0F3C01008BD2DE9F04F092883B0FA
S3150000072058D8154650EA010204460E4666D00A46D7
S3150000073000230146284601F07BF9FF284AD02146CE
S31500000740284601F041F80746DFF8DC9021462846A6
S3150000075002F0EAFB59F82430BB46BB422AD94FF0D7
S3150000076002082146284602F0D5FB0346DFF8BCA066
S3150000077021462846019301F047F92B463146384673
S315000007805AF8242002F04AFA59F824304AF824008C
S315000007909B4525D8DB1B49F824302146284601F025
S315000007A0E1FC019B03F00303012B31D0404603B06B
S315000007B0BDE8F08F43B39FB2B7FBF0F800FB1870AB
S315000007C01FFA80F8B8F1000F2AD1002C08BF4FF0AD
S315000007D00208C6E74FF0FF08404603B0BDE8F08FB9
S315000007E000233146284649F8243001F0F3FA030481
S315000007F0D3D43146284601F027FBCEE72023114605
S31500000800284601F015F998E71F464FF00108A8E7BA
S315000008102846214602F0C6FB404603B0BDE8F08FED
S315000008204FF001089DE700BFF00B0020180C0020D8
S3150000083009282DE9F04734D8164604460A46894663
S3150000084000230146304601F0F3F8FF2829D0324F45
S31500000850C0F30B052146304602F066FB57F82430FC
S31500000860AA46AB422DD33CD005B3B5FBF0F300FB53
S31500000870135080B2002847D14FF002082846274D72
S315000008803346494655F8242002F0F6F945F8240087
S3150000089057F824304046A3EB0A0347F82430BDE856
S315000008A0F0874FF0FF084046BDE8F0872146304606
S315000008B001F0AAF84FF001084946304601F0FCFA6B
S315000008C0E6E72146304601F09FF857F824304FF00E
S315000008D003089AB2924647F82450002DECD01546EC
S315000008E0CCE74CB9B5FBF0F300FB135080B218B956
S315000008F02A464FF00208F0E72146304601F084F818
S315000009004FF000082A46E8E72146304601F07CF819
S315000009104FF00108B2E700BFF00B0020180C0020D2
S31500000920092800D97047FFF78DBE00BF2DE9F843AF
S31500000930012480460E462746DFF8509002E0013437
S315000009400A2C1AD007FA04F31E42A5B2F7D029469C
S31500000950404601F007FC59F82430002BEFD0294619
S31500000960404602F0F5FA102809D0424600212846F2
S31500000970013402F06BFE0A2CE4D1BDE8F883284668
S315000009804246002102F08EFED9E700BFD80A0020B9
S315000009902DE9F843012480460D462746DFF84490AA
S315000009A007FA04F31D42A6B209D059F8243033B130
S315000009B03146404602F0DAFAB0F5404F04D0013431
S315000009C00A2CEDD1BDE8F883404601F0EFFB10F4A8
S315000009D0004F4246304614BF0521072102F06EF94A
S315000009E0EDE700BFD80A00202DE9F04701240646AE
S315000009F00D462746DFF8C890DFF8C88007FA04F3EB
S31500000A001D421FFA84FA25D059F8243013B396F8FC
S31500000A10203003EB830304EB430338F81330012B38
S31500000A2018D05146304602F075FA820736D4514640
S31500000A30304601F027FD430439D496F8203050465D
S31500000A4003EB830304EB43033246012128F81370BA
S31500000A50FFF7F8FD0134062CD0D14FF00108DFF87E
S31500000A60609008FA04F31D42A7B20ED059F824305C
S31500000A705BB13946304602F04DFA10F0020F3246AD
S31500000A80384607D0062102F019F901340A2CE8D1BC
S31500000A90BDE8F0870121FFF7D5FDF6E7504632465F
S31500000AA00621013402F00AF9062CA7D1D5E75146F2
S31500000AB03046013401F0B0FA062C9FD1CDE700BFD5
S31500000AC0D80A0020000B00204378052B04D1C378F8
S31500000AD003F00303032B02D000231846704770B5BA
S31500000AE091F820C090F902301D4C0CEB8C0101EB03
S31500000AF08101002B4FF0060290F802E004EB810121
S31500000B000ADB8E8F1546D3B20A3101326EB10A2A3C
S31500000B10F7D10023184670BD8E8F1546D3B20A3121
S31500000B200132DEB10A2AF7D1F3E70E4A0EF00F0EB4
S31500000B3042EA0E0E642202FB0CFC012205EB85053F
S31500000B400CEB450C818824F80C200022A444ACF858
S31500000B5002E0ACF80610ACF80820DBE7024AE5E74D
S31500000B60280B00200080FFFF1080FFFF00210B4BA9
S31500000B7000EB800003F15A0200EB800003EB8003D8
S31500000B8002EB80005A89012A03D159819981198281
S31500000B9059820A338342F5D1704700BF280B0020E3
S31500000BA02DE9F041012464270546244E02E0013474
S31500000BB00A2C2BD095F8202004EB840307FB02F2C5
S31500000BC002EB4303F35A012BF1D10021284601F031
S31500000BD043F81FFA84F800F00F00804518D0012171
S31500000BE0284601F039F800F00F0080451ED002219A
S31500000BF0284601F031F800F00F0080450FD041463D
S31500000C002846013400F0F8FD0A2CD3D1BDE8F08166
S31500000C10002328461A46194600F038FFDFE700236E
S31500000C2002222846194600F031FFE8E70023012298
S31500000C302846194600F02AFFD9E700BF280B0020F6
S31500000C40F8B50124642705460B4E02E001340A2C50
S31500000C5011D095F8202004EB840307FB02F202EB87
S31500000C604303F35A012BF1D1A1B22846013400F017
S31500000C7063FE0A2CEDD1F8BD280B00202DE9F843C0
S31500000C80D0E90295A9EB050890450446164609D910
S31500000C904068284404F0EEFABFF35F8F3544E56000
S31500000CA0BDE8F8830F464068424628443544A5EB24
S31500000CB0090504F0DFFA2A46606807EB080104F02C
S31500000CC0D9FABFF35F8FE560BDE8F8832DE9F843F5
S31500000CD04FF00009064617468846D0E902143369E4
S31500000CE00D1B9C4203F1FF3224BF03F1FF32521861
S31500000CF0BD4228BF3D46121B954228BF1546706867
S31500000D0041462A46204404F0B5FAB1682C44A14273
S31500000D1008BF0024A944A8447F1BBFF35F8FF4607B
S31500000D20002FDCD14846BDE8F88300BFF8B5184C63
S31500000D30A8220021204604F0AAFA4FF400660023F8
S31500000D4003211020134A04F1A80704F6A80521611F
S31500000D506161A261E7612662A3626362E362226661
S31500000D606566A0662367E3666367BFF35F8F0A4B1A
S31500000D7053219C46A3F10F0001E013F90119ACEBD6
S31500000D8003028342A154F8D1BFF35F8FF8BD00BFC1
S31500000D9000F00120785300009253000038B5204B34
S31500000DA000EB400403EBC40EDEF82C40013000EBF0
S31500000DB04000012C8C46154603EBC00005D0022CE2
S31500000DC029D0ACB10024204638BDDEF82830DEF844
S31500000DD0242093429CBFDEF820401B19013B9C1A3D
S31500000DE0AC4228BF2C462246FFF748FF204638BDB6
S31500000DF0DEF82830DEF8242093429CBFDEF820106F
S31500000E005B18013B9B1A9D42DDD82A466146FFF7D7
S31500000E1035FF2C46D7E7BDE83840FFF757BF00BF80
S31500000E2000F0012030B50C4B0C461B7883B063B143
S31500000E30EFF311854FF0200181F311882146FFF76A
S31500000E40ADFF85F3118803B030BDCDE90002FFF791
S31500000E506DFFDDE90002EBE700F00120FFF766BF5A
S31500000E60D0E9012310B50446581C904207D82268E1
S31500000E70D1540346E16862680131C4E902019A422D
S31500000E8000D010BD21682069FFF7CCFFA368984207
S31500000E9015BF4FF0FF330023E360A36010BD00BF12
S31500000EA02DE9F84F91420F46DDE90A94154683462F
S31500000EB01E4660D30B464FF00108B3FBF5F39D4287
S31500000EC008F10108F9D9B04538BFB04614F0010A57
S31500000ED002D1B9F1000F35D1DBF80C30002B2FDB36
S31500000EE0012402E0013E05FB04F4012EFAD8B7FB0B
S31500000EF0F4F39D42F7D9214E06E0AC42B4FBF5F37C
S31500000F000CD31C46B7FBF3F3F156584604FB137794
S31500000F10FFF7A6FFDBF80C30002BEEDABAF1000F74
S31500000F200ED0B9F1000F0BD0C84509F1FF3907D231
S31500000F3020215846FFF794FFDBF80C30002BF0DA3F
S31500000F40BDE8F88FA30711D420240CE021465846AB
S31500000F50FFF786FFDBF80C3009F1FF39002BEFDBDA
S31500000F60B9F1000FBCD0C845F0D3B5E7002E0CBFD1
S31500000F7030242024F7E74FF00108A4E79853000037
S31500000F802DE9F04FADF50D7D0CAB4FF0000A079340
S31500000F904FF4007383460C461746CDE909AADFF8DD
S31500000FA0BC9208930B9005E007A8FFF759FF0A9833
S31500000FB0002872DB14F9011B002972D02529F3D110
S31500000FC00026254614F9013BA3F123020D2A08D871
S31500000FD0DFE802F0490707070707070746074C0738
S31500000FE00743A3F13002D2B2092A4FF000040BD80E
S31500000FF004EB840403EB440415F9013F303CA3F1F0
S315000010003002D2B2092AF3D92E2B00F0CE8000236B
S3150000101095F9001001E015F9011F21F00402682A74
S31500001020F9D0252900F0D9805839CAB2202A2FD8FC
S3150000103020292DD8DFE801F0412C2C2C2C2C2C2C2F
S315000010402C2C2CAF5E2C2C2C2C2C2C2C2C2C2C2C25
S31500001050502C2C1D2C4D2C2C410046F00206B0E7DE
S3150000106046F00406ADE746F00806AAE746F0010694
S31500001070A7E73B681A1D3A601C6805E007A8FFF75A
S31500001080EFFE0A98002804DB14F9011B0029F5D1AC
S315000010900A98002805F101048CDA0DF50D7DBDE8EE
S315000010A0F08F0A980028F8DD099A002A40F09A8005
S315000010B010440DF50D7DBDE8F08F102238680168EB
S315000010C00430CDE90046386007A8FFF7E9FE0A9824
S315000010D0DFE70A223868F2E7082338681022016839
S315000010E00430386007A8CDF804A00093FFF7D8FEB7
S315000010F00A98CEE73A680120D2F8008004323A60B6
S3150000110088EAE872A2EBE872092A08DD1146A9FB13
S3150000111002C2632900F101004FEAD202F6DC9842CE
S31500001120024638BF1A4603928CB3B8F1000F61DB52
S3150000113072075FD4B00700D54BB3F10727D434B399
S3150000114004952546039C0593AC421DD207A8202191
S31500001150FFF786FE0A98013D00287CDB002DF3D1BF
S315000011602C46DDE90453B8F1000F45DB720750D475
S3150000117006F00302022A53D041460A22CDE9004670
S3150000118007A8FFF78DFE83E72C46DDE904530A988E
S315000011900028E8DA7DE73B6807A81A1D93F90010D6
S315000011A03A60FFF75DFE0A9873E795F9011001357D
S315000011B0A1F13003DBB2092B4FF000033FF62DAF50
S315000011C003EB830301EB430315F9011F303BA1F148
S315000011D03002D2B2092AF3D91FE707A8FFF740FE6B
S315000011E00A9856E758460CA9FFF71CFEDDE90920C8
S315000011F010445EE7013C9DE72D2107A80493FFF705
S315000012002FFE049BC8F100080A980028FFF641AF9C
S31500001210AEE72B2107A80493FFF722FE049BF3E712
S31500001220002BA9D17CB10493039BA3420DD207A83E
S315000012303021FFF715FE0A98013C0028FFF629AF7A
S31500001240002CF1D1049B002496E70A98049B002801
S31500001250FFF61FAF90E7049D1BE700BFCDCCCCCCBB
S315000012600EB400B582B003AB53F8041B01AA019378
S31500001270FFF786FE02B05DF804EB03B0704700BFCF
S31500001280004870472E30996208B572B6BFF35F8F7B
S3150000129000F0C6F900F068F9BFF35F8F62B64FF051
S315000012A0FF3008BD00F074B930B500230A46054684
S315000012B00A4C85B020460A49CDE90123039503F07F
S315000012C01FFD6A4601A9204603F03EFD204601A9FE
S315000012D003F08AFD019805B030BD00BF780E0020EE
S315000012E0C455000000F012B9022800D07047024B26
S315000012F00248596803F0BCBA8C5500004C0E002019
S315000013000022014B1A71704700FF0120F8B505460F
S3150000131017480522064640F2024103F0B9FA0522B3
S315000013204FF4816130460024012703F0B1FA07FA31
S3150000133004F32B4214BF012200224FF48161304690
S3150000134003F05CF901344FF4FA6004F015FA202C2E
S31500001350EDD100224FF48161054803F04FF9BDE855
S31500001360F840002240F20241014803F047B900BFAD
S315000013704C0E00202DE9F0474FF000084FF4827321
S3150000138046461E4F1E4D82B04FF000091FFA83FAE3
S3150000139051460DF10702284603F006F99DF807406D
S315000013A04FF47A70003C18BF012404F0E5F9514669
S315000013B028460DF1070203F0F7F89DF80730003BC9
S315000013C018BF01239C4218BF4FF00009E0D109F174
S315000013D00109B9F1030FDBD104FA06F3013643EA3A
S315000013E00803062E5FFA83F802D057F8043FCBE7CE
S315000013F088F03F0002B0BDE8F08700BFCC53000084
S315000014004C0E00202DE9F047394C4FF48271394ECD
S3150000141004F1140501E054F8041F1022304689B285
S3150000142003F036FAA542F6D1FFF7A4FF30280546A9
S3150000143002D00020BDE8F08700262F48FFF766FFA0
S315000014404FF0010AB1462D4FDFF8BC80FFF792FF3F
S315000014500446384603F09AF834EA050339D1BAF15E
S31500001460000F14D0FCB909F10109B9F5167F06F190
S3150000147001062ED0092E32D018F80650FFF77AFF53
S315000014800446384603F082F834EA050321D1A54222
S315000014900CD04FF0000A09F10109B9F5167F18D0F2
S315000014A018F80650D2E74FF0010AF4E7032009F1D5
S315000014B00109FFF72BFFB9F5167F0AD018F8065079
S315000014C0FFF758FF0446384603F060F834EA050390
S315000014D0C8D00B48FFF71AFF0020BDE8F08709487F
S315000014E0FFF714FF0748FFF711FF0120BDE8F0875B
S315000014F0CC5300004C0E002000005555C40E0020B1
S315000015000000666600005455E45300000E4C08B512
S315000015100E49204603F032F8204603F037F80C4B0C
S315000015201A696FF300021A6100F038F800F07EF8CD
S315000015300022084B83F81024A3F8C02000F00CF812
S3150000154000F01AF904F04EFAC40E0020E05500002F
S3150000155000B0014000E001400149024803F0D4BA5E
S31500001560CC550000800E002008B500F0FFF8BFF350
S315000015704F8F0549054BCA6802F4E0621343CB60FE
S31500001580BFF34F8F00BFFDE700ED00E00400FA0552
S315000015900022014B9A71704700FF012010B51D4BC8
S315000015A093F81024D20711D493F8102494070DD47D
S315000015B093F81024500709D493F81034164C1907E1
S315000015C005D4164B22689A4201D112E0124C002330
S315000015D00D206FF00F016FF052026FF0210C20709A
S315000015E084F803C06170A27023716371A371FFF761
S315000015F035FC084BB3F8C020D20706D4B3F8C03088
S315000016009B0702D40023A37110BDA3790133DBB27B
S31500001610A37110BD00E0014000FF01200DF0ADDE1A
S315000016200122014B5A71704700FF012070B582B04C
S31500001630FFF7E8FEE8B9434C63796071A3B9A37973
S31500001640022B20D8404D6B689D4217D23F4E9E42DA
S3150000165014D92B683E4A934202D93E4A934217D385
S315000016600C223D4B1A7002E002223B4B1A7002B06C
S3150000167070BD0122384B1A7002B070BD0B22364B7A
S315000016801A7002B070BD0E22334B1A7002B070BDD4
S3150000169028463249FFF708FE56F8043C83424DD0EF
S315000016A00D212D4A2E4B1170D3F8F030DB07DED515
S315000016B02379002BDBD172B600224FF0E0232948B4
S315000016C01A6101A90192FEF757FE9DF80630062B16
S315000016D002D02448FEF7B8FE00231946224803F13B
S315000016E0C0020133602B40F82210F8D100224FF0DF
S315000016F0FF31930003F16043013203F56143102A81
S31500001700C3F88010C3F88011F3D100231A46164996
S31500001710CA540133102BFBD182F31488BFF36F8FA9
S315000017200F4A25F0604323F07F039360BFF34F8F8A
S315000017302B6883F308886B68984798E7084BD3F8BB
S31500001740F030B8E700FF0120008000000000040030
S315000017500000002000000220400C0020FC7F030057
S3150000176000ED00E0540E0020006000400148FEF746
S315000017706BBE00BF540E002010B50A490A48FEF79A
S315000017808BFD00B910BD0446084B0949094A0020E3
S31500001790FFF766FD224608490020FFF761FD00BEFF
S315000017A010BD00BF98550000540E0020F0530000F5
S315000017B008540000005500002454000008B5FFF747
S315000017C091FD002008BD00BF10B5044631B900F0F8
S315000017D049FDC3050AD54FF4807010BD00F0BAFD6F
S315000017E0204600F003FEC0F30A0010BD204600F0BC
S315000017F06DFD00F07F0010BD2DE9F0414B4B90F8D8
S315000018002070044633F817300D469BB2022B4DD09C
S3150000181000F0AAFB2946204600F0E0FB29462046B8
S3150000182000F02AFC2946204601F0C2FB2946204644
S3150000183000F090FD642207FB02F2DFF8F88005EB6A
S31500001840850302EB430343445988AE00204600F06B
S31500001850B5FD7319642607FB06F606EB43064644F8
S315000018602046F18800F0DEFD2046318900F0F2FDC9
S315000018702046002100F06EFD2946204600F094FE29
S315000018802946204601F080FB2946204600F02EFE20
S315000018902946204600F01EFC2946204600F03EFC64
S315000018A029462046BDE8F04100F05CBC0022204BF2
S315000018B043F82120FEF728FF80462946204694F863
S315000018C0207000F051FB2946204600F087FB294690
S315000018D0204600F0D1FB08F1FF382946204601F0EA
S315000018E067FB1FFA88F82946204600F033FDB8F159
S315000018F0010F0FD8642207FB02F2DFF8388005EBF0
S31500001900850302EB430343445988AE0041F48061EA
S3150000191059809BE764230A2207FB03F302FB053386
S31500001920DFF81080AE00434459888FE7D00A0020C4
S31500001930D80A0020280B002070B5314B90F82020E3
S31500001940054633F812300E469BB2022B03D1002215
S315000019502C4B43F821203146284601F029FB31461D
S31500001960284600F001FB3146284600F037FB314699
S31500001970284600F081FB48F22F034FF40042002175
S31500001980284600F09FF90021284600F065F910F07E
S315000019902F04F8D13146284600F0DCFC21462846C3
S315000019A000F00CFD2146284600F03CFD2146284665
S315000019B000F050FD2146284600F0CCFC3146284672
S315000019C000F0F2FD3146284601F0DEFA314628469F
S315000019D000F08CFD3146284600F074FE314628465C
S315000019E000F08EFE3146284600F074FB314628464C
S315000019F000F094FB31462846BDE8704000F0B2BBCB
S31500001A00D00A0020D80A002070B501224FF6FF74D4
S31500001A1006460D4600F02EFE2946304600F032FD01
S31500001A20013C8306A4B200D470BD002CF4D170BD75
S31500001A3070B505461646A2B164240BE0284600F0B0
S31500001A4047F8013C284600F05DF8A4B20A2000F0F1
S31500001A5067FFC4B13146284600F0BCF98304EDD5D2
S31500001A6070BD41EA0304114648F22F0344F40042D4
S31500001A7000F028F90021284600F0EEF800F02F00CB
S31500001A808442F7D1D8E7FF2070BD00BF02B170478E
S31500001A9038B543EA0104114648F22F0344F40042E4
S31500001AA0054600F00FF90021284600F0D5F800F0B1
S31500001AB02F039C42F7D138BD38B504460D4600F0D9
S31500001AC001FE29462046BDE8384000F019BE00BF99
S31500001AD0094B90F8202033F812309BB2022B01D02C
S31500001AE0002070471AB9054B188880B27047044B1E
S31500001AF0188880B2704700BFD00A00200000094055
S31500001B0000101140094B90F8202033F812309BB298
S31500001B10022B01D0002070471AB9054B988880B275
S31500001B207047044B988880B2704700BFD00A0020E7
S31500001B300000094000101140094B90F8202033F8AE
S31500001B4012309BB2022B01D0002070471AB9054B08
S31500001B50188980B27047044B188980B2704700BF5D
S31500001B60D00A00200000094000101140094B90F8EF
S31500001B70202033F812309BB2022B01D00020704790
S31500001B800029FBD1012A0BBF034B044BD88A988A44
S31500001B9080B27047D00A00200010114000000940B2
S31500001BA0134B90F8200033F810309BB2022B05D06F
S31500001BB0012914D002290FD059B170470128F7D155
S31500001BC0012912D002290DD00029F6D1094BDA825B
S31500001BD07047094B9A827047074B9A837047064BAA
S31500001BE01A837047034BDA83E7E7024B5A83704741
S31500001BF0D00A00200010114000000940134B90F855
S31500001C00200033F810309BB2022B05D0012914D0E6
S31500001C1002290FD059B170470128F7D1012912D0F6
S31500001C2002290DD00029F6D1094BDA757047094B08
S31500001C301A757047074B1A777047064B1A76704726
S31500001C40034BDA77E7E7024BDA767047D00A0020D3
S31500001C500010114000000940134B90F8202033F883
S31500001C6012309BB2022B1CD1012912D0022907D1B6
S31500001C700E490F4B012A18BF0B46188880B27047D1
S31500001C8079B90C490C4B012A18BF0B46188880B24B
S31500001C9070470A490A4B012A18BF0B46188880B2BA
S31500001CA0704700231B88FFDED00A00202C00094065
S31500001CB02C10114020000940201011402800094036
S31500001CC02810114010B5194C90F820E034F81E0089
S31500001CD080B2022826D101291CD0022907D1144935
S31500001CE01448BEF1010F0CBF8C46844607E0C9B903
S31500001CF011491248BEF1010F0CBF8C468446BCF850
S31500001D00001003EA02008AB222EA03030343ACF896
S31500001D10003010BD0A490B48BEF1010F0CBF8C46BE
S31500001D208446ECE700231B88FFDE00BFD00A0020B4
S31500001D302C1011402C0009402010114020000940B1
S31500001D40281011402800094010B41B4C90F82000C0
S31500001D5034F810309BB2022B04D1012926D0022977
S31500001D601ED0B9B1002134F810309BB2022B02D03C
S31500001D705DF8044B70470B8823F440631B041B0C6F
S31500001D800B80002AF4D00B885DF8044B9BB21A43F3
S31500001D900A80704709490A4B012818BF1946E2E72D
S31500001DA00849094B012818BF1946DCE70749084BC3
S31500001DB0012818BF1946D6E7D00A00202010114086
S31500001DC0200009402C1011402C0009402810114019
S31500001DD028000940164B90F8202033F812309BB2A9
S31500001DE0022B21D1012917D0022907D11149124B03
S31500001DF0012A18BF0B46188880B27047A1B903F1B3
S31500001E0080430E4903F5881303F58153012A18BF51
S31500001E100B46188880B2704709490A4B012A18BF39
S31500001E200B46188880B2704700231B88FFDE00BF70
S31500001E30D00A00202E0009402E1011402200094031
S31500001E402A0009402A101140144B90F8202033F83C
S31500001E5012309BB2022B1DD1012915D0022905D1C2
S31500001E600F49104B012A18BF194605E091B90E49D2
S31500001E700E4B012A18BF19460B886FEA43436FEAD7
S31500001E8053439BB20B80704709490A4B012A18BF7E
S31500001E901946F1E700231B88FFDE00BFD00A0020A9
S31500001EA02E1011402E000940221011402200094038
S31500001EB02A1011402A000940174B90F8202033F8C9
S31500001EC012309BB2022B24D1012919D0022908D144
S31500001ED0124B1349012A18BF0B464FF480421A8051
S31500001EE07047B1B903F180430E4903F5881303F532
S31500001EF08153012A18BF0B464FF480421A8070475F
S31500001F00094B0A49012A18BF0B464FF480421A8032
S31500001F10704700231B80FFDED00A00202E101140E0
S31500001F202E000940220009402A1011402A000940CB
S31500001F300A4B90F8202033F812309BB2022B00D0C7
S31500001F40704701233AB1064AD08E03FA01F10143E4
S31500001F5089B2D1867047034AF6E700BFD00A00204F
S31500001F6000101140000009400B4B90F8202033F878
S31500001F7012309BB2022B00D070474AB101220748AB
S31500001F80C38E02FA01F19BB223EA0101C1867047B2
S31500001F9001220348F4E700BFD00A002000101140D8
S31500001FA0000009400A4B90F8202033F812309BB20B
S31500001FB0022B00D0704701233AB1064A108F03FA6C
S31500001FC001F1014389B211877047034AF6E700BF62
S31500001FD0D00A002000101140000009400B4B90F879
S31500001FE0202033F812309BB2022B00D070474AB142
S31500001FF001220748038F02FA01F19BB223EA01018D
S315000020000187704701220348F4E700BFD00A002089
S315000020100010114000000940134B90F8202033F8BF
S3150000202012309BB2022B00D0704710B55AB901236B
S315000020300E4C0F4824F81120428F03FA01F1114388
S3150000204089B2418710BD4FF0000E01230748094AA7
S3150000205001F10A0C20F81CE003FA01F1538F194331
S3150000206089B2518710BD00BFD00A0020000B0020A6
S3150000207000000940001011400B4B90F8202033F867
S3150000208012309BB2022B00D070474AB1012207489A
S31500002090438F02FA01F19BB223EA0101418770479F
S315000020A001220348F4E700BFD00A002000101140C7
S315000020B00000094020B9054BB3F8400080B27047D4
S315000020C0034BB3F8400080B2704700BF00000940E0
S315000020D0001011400E4B90F8202033F812309BB2BE
S315000020E0022B00D07047012342B903FA01F1C9431C
S315000020F0084AC1F30901A2F84610704703FA01F134
S31500002100C943054AC1F30901A2F84610704700BF4A
S31500002110D00A002000000940001011400E4B90F834
S31500002120202033F812309BB2022B00D070470123D7
S3150000213042B903FA01F1C943084AC1F30901A2F8F9
S315000021404810704703FA01F1C943054AC1F3090172
S31500002150A2F84810704700BFD00A002000000940CE
S31500002160001011400E4B90F8202033F812309BB22D
S31500002170022B00D07047012342B903FA01F1C9438B
S31500002180084AC1F30901A2F84A10704703FA01F19F
S31500002190C943054AC1F30901A2F84A10704700BFB6
S315000021A0D00A002000000940001011400A4B90F8A8
S315000021B0202033F812309BB2022B01D0002070474A
S315000021C022B9064BB3F84C0080B27047044BB3F803
S315000021D04C0080B2704700BFD00A002000000940C2
S315000021E00010114020B9054BB3F8540080B2704777
S315000021F0034BB3F8540080B2704700BF000009409B
S315000022000010114020B9054BB3F8560080B2704754
S31500002210034BB3F8560080B2704700BF0000094078
S315000022200010114020B9054BB3F8580080B2704732
S31500002230034BB3F8580080B2704700BF0000094056
S315000022400010114020B9054BB3F85A0080B2704710
S31500002250034BB3F85A0080B2704700BF0000094034
S31500002260001011400A4B90F8202033F812309BB230
S31500002270022B01D00020704722B9064BB3F85C0050
S3150000228080B27047044BB3F85C0080B2704700BF61
S31500002290D00A00200000094000101140084B90F8B9
S315000022A0202033F812309BB2022B00D070471AB9A7
S315000022B0044BA3F85C107047034BA3F85C107047FF
S315000022C0D00A002000000940001011400A4B90F887
S315000022D0202033F812309BB2022B01D00020704729
S315000022E022B9064BB3F85E0080B27047044BB3F8D0
S315000022F05E0080B2704700BFD00A0020000009408F
S3150000230000101140084B90F8202033F812309BB291
S31500002310022B00D070471AB9044BA3F85E10704721
S31500002320034BA3F85E107047D00A00200000094056
S315000023300010114020B9054BB3F8600080B2704719
S31500002340034BB3F8600080B2704700BF000009403D
S3150000235000101140084B90F8202033F812309BB241
S31500002360022B00D070471AB9044BA3F864107047CB
S31500002370034BA3F864107047D00A00200000094000
S31500002380001011400A4B90F8202033F812309BB20F
S31500002390022B01D00020704722B9064BB3F8680023
S315000023A080B27047044BB3F8680080B2704700BF34
S315000023B0D00A00200000094000101140084B90F898
S315000023C0202033F812309BB2022B00D070471AB986
S315000023D0044BA3F868107047034BA3F868107047C6
S315000023E0D00A002000000940001011400A4B90F866
S315000023F0202033F812309BB2022B01D00020704708
S3150000240022B9064BB3F86C0080B27047044BB3F8A0
S315000024106C0080B2704700BFD00A0020000009405F
S3150000242000101140084B90F8202033F812309BB270
S31500002430022B00D070471AB9044BA3F86C107047F2
S31500002440034BA3F86C107047D00A00200000094027
S3150000245000101140084B90F8202033F812309BB240
S31500002460022B00D070471AB9044BA3F86E107047C0
S31500002470034BA3F86E107047D00A002000000940F5
S31500002480001011404FF0000C134B90F8202082B042
S31500002490ADF806C033F812309BB2022B04D0BDF85B
S315000024A0060080B202B0704762B181B10B4B03EBFC
S315000024B041010B889BB2ADF80630BDF8060080B22C
S315000024C002B0704729B1064B03EB4101F1E705491C
S315000024D0EFE70549EDE700BFD00A00206E10114076
S315000024E06E00094060101140600009400B4B90F8E7
S315000024F0202033F812309BB2022B00D0704742B135
S31500002500074B03EB41010B889BB243F400530B804E
S315000025107047044B03EB4101F5E700BFD00A0020EA
S315000025206E1011406E0009400D4B90F8202033F8D4
S3150000253012309BB2022B00D0704742B9094A32F8DA
S3150000254011309BB243F4007322F811307047064AEB
S3150000255032F811309BB243F4007322F81130704701
S31500002560D00A00206E0009406E1011400B4B90F807
S31500002570202033F812309BB2022B00D070474AB1AC
S31500002580074B03EB41010B8823F400731B041B0C60
S315000025900B807047034B03EB4101F4E7D00A0020A0
S315000025A06E1011406E000940174B90F8202033F84A
S315000025B012309BB2022B00D070474AB9D9B9134AE0
S315000025C0B2F860309BB243F48073A2F86030704773
S315000025D041B90F4AB2F860309BB243F48073A2F857
S315000025E0603070470B4A32F811309BB243F4807367
S315000025F022F81130E0E7084A32F811309BB243F472
S31500002600807322F811307047D00A0020000009407C
S31500002610001011406E1011406E000940104B90F8EA
S31500002620200033F810309BB2022B00D0704770B1F7
S3150000263091B10C4B03EB41010B8823F003031B0400
S315000026401B0C0B800B889BB21A430A80704729B17A
S31500002650054B03EB4101EFE70449EDE70449EBE7DE
S31500002660D00A00206E1011406E0009406010114023
S31500002670600009400E4B90F8200033F810309BB2F2
S31500002680022B00D0704748B169B10A4B03EB4101F8
S315000026900B889BB223EA02020A80704729B1064BD7
S315000026A003EB4101F4E70549F2E70549F0E700BF0E
S315000026B0D00A00206E1011406E00094060101140D3
S315000026C0600009400B4B90F8202033F812309BB283
S315000026D0022B00D070474AB1074A89000A44138882
S315000026E023F400731B041B0C13807047034A8900F4
S315000026F00A44F4E7D00A00208C1011408C000940EF
S315000027000B4B90F8202033F812309BB2022B00D0EE
S31500002710704742B1074A89000A4413889BB243F4C2
S31500002720807313807047044A89000A44F5E700BFA6
S31500002730D00A00208C1011408C0009400020704700
S31500002740704700BF704700BF124B5A6870B9110539
S315000027501CD5EFF31081012282F310885A6822F407
S3150000276000625A605B6881F310887047D2040DD509
S31500002770EFF31081012282F310885A6822F4006276
S315000027805A605B6881F310880020704740F2DD5084
S31500002790704700BF00400840002854D110B4314CA7
S315000027A063681905C3F3C02254D480212E4B1A81C5
S315000027B0A3F86010A3F87020A3F87220A3F8742081
S315000027C0A3F87620A3F87820A3F87A20A3F87C2033
S315000027D0A3F87E20A3F88020DA861A875A871A86FD
S315000027E05A86198821F010010904090C19801988E4
S315000027F021F020010904090C1980198821F0010132
S315000028000904090C1980198821F040010904090CF2
S315000028101980A3F84620A3F84820A3F84A20636845
S31500002820C3F3C0201B051AD4EFF31082012383F3F0
S315000028301088636843F400636360636882F31088FA
S315000028405DF8044B704740F2E25301280CBF0020AC
S315000028501846704740F2DC505DF8044B70474FF461
S31500002860BC60EDE7004008400000094000B1704739
S315000028704FF0010CF0B5254B254DD3F80024254E1D
S3150000288060F30412C3F800240A7D91F90D30120199
S31500002890214CEF18D2B287F8002303F1C00E46F898
S315000028A023105A0954F82E70920003F01F0302F108
S315000028B0604202F561420CFA03F360F3104744F8F4
S315000028C02E70C2F880311360CB7C91F90C201B016D
S315000028D01544DBB285F8003346F8221002F1C00534
S315000028E054F8256053099B0060F3104602F01F025E
S315000028F00A4803F1604344F825600CFA02F203F536
S315000029006143C3F880211A600160F0BD00000940F0
S3150000291000E100E03012002000600040D80E0020E8
S31500002920012102F045BB00BF4FF47A7102F040BBB3
S31500002930EFF30383103B084A5BB2C03352F823100F
S3150000294006486FF3104142F8231003889BB2012B0F
S3150000295000D1704701F006B800600040D00A0020A0
S3150000296010B4EFF30383103B084A5BB203F1C001D6
S3150000297052F82100064C6FF3104042F8210054F83B
S3150000298023305DF8044B987800F048BA00600040A8
S31500002990301200202DE9F043012A0CBF784B794B09
S315000029A00446B3F840E0B3F84660B3F84880B3F89D
S315000029B04A70B3F830C0D88E1D8F5B8F1FFA85F929
S315000029C09DB200231FFA8EFE1EF47F4F238083B034
S315000029D0B6B21FFA88F8BFB21FFA8CFC80B20B8021
S315000029E00ED00EEA0C0313F4804F0CD0012A4BF6DE
S315000029F0FF720CBF624B634BA3F840201223238067
S31500002A0003B0BDE8F08313F4004F0DD113F4005F5B
S31500002A1017D0012A4DF6FF720CBF594B594BA3F83C
S31500002A20402013232380EBE7012A47F6FF720CBFF1
S31500002A30534B544BA3F840201123238003B0BDE829
S31500002A40F08313F4805F12D1304013F480761BD0EC
S31500002A5010F0010F18D0012A40F2FE320CBF484B8D
S31500002A60484BA3F84620012323800B80C8E7012AA0
S31500002A704EF6FF720CBF424B424BA3F84020142384
S31500002A802380A1F800E0BBE713F4806C07EA050792
S31500002A900ED0FD070CD5012A40F2FE320CBF384B92
S31500002AA0384BA3F84A200222012322800B80A7E795
S31500002AB013F4007E08EA09050FD015F0010F0CD0BB
S31500002AC0012A40F2FE320CBF2D4B2E4BA3F84820B4
S31500002AD00322012322800B8092E71B051DD466B1D9
S31500002AE0C343012A0CBF264A264AC3F30903A2F8A8
S31500002AF0463001232380088082E7BCF1000F2DD0E9
S31500002B00FB43012A0CBF1E4A1E4AC3F30903A2F85F
S31500002B104A30022323800F8072E71046019100920B
S31500002B20FFF7C8FA0199009A08804FF2FF70012A50
S31500002B300CBF134B134BA3F84000152323800B88BF
S31500002B4003F00703062B7FF45BAF1046009100F0FD
S31500002B5075F90023009923800B8051E7BEF1000F21
S31500002B603FF44EAFEB43012A0CBF054A054AC3F3B7
S31500002B700903A2F84830032323800D8040E700BFF5
S31500002B80001011400000094010B5044600F056F947
S31500002B902046FFF727FB0246094B20461A80FFF71F
S31500002BA031FB0246074B20461A80FFF73BFB0246E5
S31500002BB0054B20461A80FFF745FB044B188010BDD5
S31500002BC0681100206A1100205C1100205E110020AF
S31500002BD008B590F82000FFF76DFA00F07000A0F13C
S31500002BE03000B0FA80F0400908BD00BF704700BF52
S31500002BF010B5044690F8200000F010F994F8200073
S31500002C00BDE8104000F0FAB80B460222014618460D
S31500002C10FFF704BD02220021FFF700BD2DE9F041B8
S31500002C20450880460F4614461E4623D002EB45054E
S31500002C3034F8022B39463046FEF7B2FFAC42F7D1E4
S31500002C4018F0010F02D12846BDE8F081394630461A
S31500002C500022FFF779F815F8012B39463046FEF7C2
S31500002C60CDFF30464FF480623946FFF76DF82846AF
S31500002C70BDE8F0811546E3E72DE9F0414508074632
S31500002C80884614461E4617D002EB45054146304697
S31500002C90FEF76CFF24F8020BAC42F7D1FB0702D417
S31500002CA02846BDE8F08141463046FEF75FFF05F84D
S31500002CB0010B2846BDE8F0811546EFE72DE9F04106
S31500002CC00446154610460F462146FEF79DFE214650
S31500002CD02846FFF749F921462846FFF77FF921469E
S31500002CE02846FFF7C9F921462846FEF7E5FE0021EA
S31500002CF02846FEF7B1FF00F00F00844223D021469C
S31500002D002846DFF8548000F03FF921462846FFF7B1
S31500002D10EDFB58F82460A6B10E4B214653F824303B
S31500002D2028463361B784FFF7ADFB58F824104B688B
S31500002D30F0841BB10022084611469847002348F844
S31500002D402430BDE8F081002328461A461946FEF7CE
S31500002D509DFED4E7F00B0020D80A002010B5064CE3
S31500002D60238803B910BDFFF7EBFC6420FFF7D8FDFD
S31500002D700023238010BD00BFDC0E00200122024B81
S31500002D801A80FFF7DFBC00BFDC0E002030B9074A0F
S31500002D9013889BB243F0100313807047044A1388CC
S31500002DA09BB243F010031380704700BF0000094038
S31500002DB00010114038B9054A138823F010031B048C
S31500002DC01B0C13807047024AF6E700BF000009405B
S31500002DD00010114030B9074A138E9BB243F480436A
S31500002DE013867047044A138E9BB243F480431386BE
S31500002DF0704700BF000009400010114038B9054A6D
S31500002E00138E23F480431B041B0C13867047024A5F
S31500002E10F6E700BF00000940001011404BF6FF72B4
S31500002E2018B9044BA3F840207047034BA3F8402081
S31500002E30704700BF00000940001011404FF6F772BE
S31500002E4018B9044BA3F840207047034BA3F8402061
S31500002E50704700BF000009400010114040B9094A00
S31500002E60B2F860309BB243F00403A2F860307047BA
S31500002E70054AB2F860309BB243F00403A2F8603012
S31500002E80704700BF0000094000101140D8B90E4B32
S31500002E901A8892B242F480621A801A885205FCD5CA
S31500002EA04FF480614FF41D401A8822F0200212046C
S31500002EB0120C1A801A8892B242F001021A80198402
S31500002EC019859985188670470000094088B90C4A0B
S31500002ED0B2F8603023F003031B041B0CA2F8603029
S31500002EE0B2F860309BB231B943F00103A2F860300A
S31500002EF07047044AECE743F00203A2F860307047DB
S31500002F000000094000101140092900D97047FFF759
S31500002F1049B800BF092901D90020704708B5FFF755
S31500002F20B1FA00F0030008BD09290FD810B541B168
S31500002F300446FFF70FFA2046FFF758FAC0F30A00D7
S31500002F4010BDFFF7C3F9C0F30A0010BD002070479B
S31500002F50092901D90020704710B50446FFF7FAF990
S31500002F602046FFF70FFA00F0100010BD092901D91D
S31500002F700020704710B50446FFF7ECF92046FFF72E
S31500002F8001FA00F4404010BD092900D9704738B550
S31500002F900C460546FFF7C8FA21462846BDE83840E4
S31500002FA0FFF7E4BA092900D970470122FFF736BBBB
S31500002FB0092900D9704738B50C460546FEF724FDA9
S31500002FC021462846BDE838400222FFF753BB00BF22
S31500002FD008B5FEF7B1FD00F00700013880B20328FE
S31500002FE096BF024B002033F8100008BD2C57000096
S31500002FF030B58E460E4D2B7803EBC30CEA1805EB65
S315000030008C0C01330CF10C0C9070DCB2BEE80F0096
S31500003010ACE80F00BEE80F00ACE80F00DEF80030A9
S31500003020092CCCF800308ABF00232C702B7030BDE1
S315000030302807002000F046B938B5054605200024CB
S31500003040FFF772FC2846FEF75DFD820709D10B20CB
S31500003050FFF76AFC2846FEF755FD0B348307A4B23A
S3150000306009D001340120A4B2FFF75EFCB4F5167F47
S31500003070E8D3002038BD012038BD00BF30B5054675
S315000030808BB0FFF7D9FF2A20FFF74EFC2846FFF743
S3150000309055FB04461620FFF747FC14F4807417D03E
S315000030A02A20FFF741FC2846FFF748FB024612F4A8
S315000030B0007F14BF02220122074B95F820400B2007
S315000030C001A98DF804401A80FFF792FF0BB030BDBE
S315000030D0014B1C800BB030BDDE0E002070B5012503
S315000030E0144600221C4B1D801C4B18601C482023D4
S315000030F0016011462046FEF7C9FC00212046FEF776
S31500003100DBFE00212046FFF72DF800212246084667
S31500003110FDF702FB0128054605D020F00206B6B2EF
S315000031205EB1284670BD20460021FFF7EDFE204621
S315000031300021FFF737FF284670BD31462046FEF7CF
S315000031406BFF31462046FFF7DFFE20463146FFF78C
S3150000315029FF284670BD00BF58110020F00B002043
S31500003160180C002038B501240D460F4900230C80A9
S3150000317014460E4A194610600D481A460560204648
S31500003180FEF784FC20460021FEF796FE204600212D
S31500003190FEF7CEFE20460021FFF7B6FE2046BDE82C
S315000031A038400021FFF7FEBE58110020F00B00202A
S315000031B0180C002038B50C4600210546184A194B54
S315000031C0204611801980FEF757FF00212046FEF7A2
S315000031D0CBFE00212046FEF701FF94F820300021A7
S315000031E0012B0CBF4FF400624FF480622046FEF7BD
S315000031F0ABFD25F00203052B07D0082D0AD094F865
S315000032002000BDE83840FFF729BE2046BDE838401B
S31500003210FFF700BD2046BDE838400021FEF7F4BBAD
S315000032205811002084110020704700BF704700BF6E
S3150000323003464FF0010C00B5074A8BB093F82030D7
S31500003240032001A9A2F800C08DF80430FFF7D0FED4
S315000032500BB05DF804FB00BFE00E0020034600B58E
S315000032608BB093F82030042001A98DF80430FFF7C5
S31500003270BFFE0BB05DF804FB034600B58BB093F8B8
S315000032802030052001A98DF80430FFF7B1FE0BB000
S315000032905DF804FB704700BF094B1A88012A00D06D
S315000032A07047002200B58BB090F820C001A9062017
S315000032B08DF804C01A80FFF79BFE0BB05DF804FB87
S315000032C0E00E002030B5744C91B094F8513094F86B
S315000032D050209A4201D111B030BD04EBC3014868B9
S315000032E034F833208078013A49888DF82800142A6A
S315000032F01BD8DFE802F06F69631A1A1A1A1A1A1A2B
S315000033001A1A1A1A1A1A590B1A4C2800634B5B6AB6
S31500003310002B00F08980002202A8114601909847F0
S315000033200198FFF765FC94F851305D4A0133DBB232
S31500003330A2FB0312D20802EB8202A3EB420384F83B
S31500003340513011B030BD11F0070555D1554B1B88D2
S31500003350012B00F08C80544B1B8813F0600F03F098
S31500003360600200F088805148514A52491288038011
S315000033700B8842808380504A484B1288DB6AC280A1
S3150000338013B1294602AA984794F85130CDE701F0C7
S315000033907002402A2AD023D8102AC6D102A800F0EB
S315000033A00FFB94F85130C0E700F0B0FB402802A8AC
S315000033B035D000F033FB94F85130B6E702A800F0A0
S315000033C0A7FA94F85130B0E702A800F0A7FA94F8EB
S315000033D05130AAE702A800F06BFA94F85130A4E73E
S315000033E0602A03D001F0500150299ED102A800F0B6
S315000033F057FB94F8513098E701F00503012B33D0C1
S31500003400052D31D0284B1B8813F0600FABD1013D41
S31500003410042D3AD8DFE805F0221C100A160000F049
S31500003420EFFA94F8513080E702A87AE702A800F094
S315000034308FFF94F8513078E702A800F095FD94F8D4
S31500003440513072E702A800F091FD94F851306CE714
S3150000345002A800F023FF94F8513066E702A800F0B6
S3150000346035FC94F8513060E7FFF78EFBCAE702A8F7
S31500003470FFF7BCFB6FE7114B114902A81A800A80BF
S3150000348000F0E4FB94F851304FE7072002A9FFF75C
S3150000349091FE94F8513048E78C110020E41000208A
S315000034A0CDCCCCCC86110020681100206011002004
S315000034B06A1100205C1100205E110020841100209A
S315000034C058110020002110B4054C064B21804FF402
S315000034D0FF7205485DF8044B198001F0D8BE00BFA5
S315000034E0E21000205A110020E40E00208446044B0E
S315000034F04FF4FF7200210348A3F800C001F0C7BED5
S31500003500E2100020E40E0020FF22044B03F120010C
S3150000351023F8022F8B421A84FAD170471611002025
S31500003520014B9B6818797047E410002000B5134BD7
S31500003530996891F800E091F802C00EEB0102C97893
S315000035404CEA012CE64514D21FFA8EF34FF0000E1A
S315000035505178042904D19178814208BF92F803E09A
S3150000356011780B449BB263450A44F1D370465DF86B
S3150000357004FB4FF0000E70465DF804FBE4100020DB
S315000035802DE9F041244B9B68DD7893F802E01C7826
S315000035900EEB052E1FFA8EFE7445234434D2002608
S315000035A0A2B2B04634461D4F1BE0BCF1050F12D146
S315000035B0B44210D29D7893F902C005F00F054FEA88
S315000035C0DC7C05EB0C1508EB040C5FFA8CFC013473
S315000035D027F815C0A4B21D782A4492B272452B442E
S315000035E012D293F801C0BCF1040FDED19D7885425A
S315000035F00CD093F804C0C4441FFA8CF81D782A44F2
S31500003600D2B272452B44ECD3BDE8F081DD788D4211
S31500003610EFD11E79F2E700BFE41000201811002058
S31500003620044B188820B1044B9B68D879C0F340102E
S31500003630704700BFE2100020E4100020024B9B6898
S31500003640D879C0F380107047E4100020092800D90B
S31500003650704738B504461546FDF7EAF8032819D829
S31500003660DFE800F0110A020338BD2A462046BDE80D
S3150000367038400521FFF722BB2A462046BDE83840E0
S315000036800421FDF74DB92A462046BDE838400321FE
S31500003690FDF746B92A462046BDE838400721FFF720
S315000036A00DBB00BF092800D9704770B504460E4609
S315000036B0154601461046FEF757FC2A463146204677
S315000036C0FDF72AF8012809D821462846FEF7A4FC6A
S315000036D021462846BDE87040FFF716BC022809D1EE
S315000036E021462846FEF724FC21462846BDE87040C0
S315000036F0FFF70ABC2A462046BDE870400721FFF7BF
S31500003700DDBA00BF0021084B084A0948C3E9052273
S31500003710C3E90722C3E90922C3E90011C3E902117B
S31500003720D8621961704700BFE410002029320000FA
S315000037302D3200004A6830B4D2E90051D468D1B1C4
S3150000374090680E4BC3E90054C3E9021015690C4C8E
S315000037500C480D49127DC3E90454C3E906010B4C1C
S315000037600B490C48C3E908410B4983F83020C3E9EB
S315000037700A0130BC704791680846E2E7E410002071
S315000037800938000031320000993200005D32000035
S3150000379079320000953200008D4400002DE9F04793
S315000037A0047894422BD2064617469A464FF00009F3
S315000037B04FF0FF0808E0BCF1050F16D095F800C0E1
S315000037C06444A4B2A7420DD9351995F801C0BCF1DD
S315000037D0040FF0D195F800C095F805906444A4B2A2
S315000037E0A742F1D84046BDE8F0874A4651462846EA
S315000037F0FDF76AF9002818BF4FF00008DEE74FF022
S31500003800FF084046BDE8F087F0B5274B04461A8806
S315000038100E46012A8DB035D003AFC02E234B24D0DF
S315000038209D68002D3AD002226A70DB681BB1072220
S315000038305A7005B9FEE7EB78AA7894F8200002EBF7
S31500003840032292B20192FDF791F923463146019A7D
S315000038502846FFF7A3FF94F82030394601208DF85B
S315000038600C30FFF7C5FB0DB0F0BDD3E90225CAB198
S3150000387007215170DB68002BDBD002225A70002D25
S31500003880D8D0D8E7002290F8201003AF8DF80C109E
S31500003890062039461A80FFF7ABFBBEE7DB68002B34
S315000038A0C5D1C7E72B46E6E7E00E0020E41000206E
S315000038B0CB0711D50021024610B504460846FCF791
S315000038C0B7FF032812D009D8022819D02046BDE830
S315000038D010400021FEF748BBFDF728B8FF2815D198
S315000038E02146BDE810400720FFF764BC20460021B2
S315000038F0FEF7E2FA2146BDE810400520FFF75ABC64
S315000039002046BDE810400021FFF74CBB10BD00BFAC
S31500003910CB0700D57047FDF73BB800BFCB0717D5DF
S315000039200021024610B504460846FCF7F5FE0228BB
S3150000393011D005D82046BDE810400021FEF79CBBFB
S31500003940FF2807D12146BDE810400720FFF732BC0B
S31500003950FDF74AB810BD2046BDE810400021FFF72C
S3150000396021BB00BF38B5EFF30383124A103B5BB2AD
S3150000397052F82350104CA878FFF7F0F994F850301D
S31500003980D80004EBC3035D60811CAA781846214465
S31500003990FFF700F894F85030084A0133DBB2A2FB77
S315000039A00312D20802EB8202A3EB420384F85030E2
S315000039B038BD00BF301200208C110020CDCCCCCCFD
S315000039C038B504460C4D00F0C1F8FFF77BFD2046E4
S315000039D0FFF7FEFA6B6923B1084A014612882046B2
S315000039E0984720460021FEF759FC2B682046D979D6
S315000039F0BDE83840FEF786BCE4100020DE0E00204D
S31500003A0010B504460A20FEF78FFF2046FFF736FB67
S31500003A1094F82000BDE81040FFF7B8B92DE9F04151
S31500003A20054690F82000FFF7C5F90023184A01243F
S31500003A301380184A6427184E138001E00A2C19D007
S31500003A4095F8203004EB840207FB03F303EB4203F3
S31500003A50F35A1FFA84F8012B04F10104EED12A4629
S31500003A6008214046FFF72AF941462846FDF764FF3C
S31500003A700A2CE5D1094BDB691BB100222846114609
S31500003A80984795F82000BDE8F041FFF777B900BFE9
S31500003A90E21000205A110020280B0020E41000201C
S31500003AA070B5044690F82000FFF794F994F82000CA
S31500003AB0FEF700FB05462046FEF724F86B0603D505
S31500003AC000F00300012809D094F82000FFF7A6F9BA
S31500003AD094F82000BDE87040FFF790B994F82000F4
S31500003AE0FFF74CF900F034F8054B1B6A33B1054972
S31500003AF02046BDE8704000220988184770BD00BF07
S31500003B00E41000205A110020FFF784B870B506466D
S31500003B103046FEF7CFFA05460A20FEF701FF30468B
S31500003B20FEF7C8FA04460A20FEF7FAFE3046FEF70C
S31500003B30C1FA85EA040344401C432306E8D415F081
S31500003B40800F14BF4020432070BD00BF704700BFE8
S31500003B50704700BF2DE9F0410E4600210C464FF09C
S31500003B60280805464022254801F091FB21464FF4DE
S31500003B70FF72234801F08BFB224B21461C80224B0F
S31500003B8034221C80214B22481C80224B224F1C8051
S31500003B90224B1C80224B1C80224B1C80224B1C80FB
S31500003BA0224B1C605C60224B1C6001F070FB42469D
S31500003BB02146204801F06BFB424621461E4801F093
S31500003BC066FB4FF00E3C1D4B424621461C605C6076
S31500003BD09C60DC601C611A48C7F800C0C7F804C0C6
S31500003BE0A7F808C001F053FB164A174B3146284682
S31500003BF014801C80BDE8F041FFF79CBD1811002021
S31500003C00E40E002088110020681100206A110020AF
S31500003C10E41000205C1100202A0700205E1100201D
S31500003C205811002084110020E00E002060110020B1
S31500003C306C110020180C0020F00B002070110020E1
S31500003C40D80A0020E21000205A1100202DE9F04188
S31500003C500025174B174A1B88158003F47F43B3F5DD
S31500003C60106F0ED0B3F5306F19D1134B9B6AB3B1F9
S31500003C70124A134914882A4631F81410BDE8F04157
S31500003C801847104E104F04463088B7F80080FFF7EB
S31500003C902DFC3388434502D0074B9B690BB9BDE821
S31500003CA0F0812A4620463988BDE8F041184700BF12
S31500003CB06811002084110020E41000205C1100200F
S31500003CC0E40E00206A110020E21000208E4B02460E
S31500003CD0198801F47F43B3F5006F5AD030B583B02D
S31500003CE017D8002B31D0B3F5C06F35D111F01F03B3
S31500003CF038D1864B19880B0A013BCCB2062B2BD840
S31500003D00DFE813F07900B500A6002A002A00C600F5
S31500003D108600B3F5206F1FD101F01F0101291BD1C9
S31500003D207A4B1B88C3B97A4B1888012814D1794B72
S31500003D301B88FE2B10D8784C784934F813300B705A
S31500003D4003B0BDE83040FFF7C9B9704B1B881BB9FB
S31500003D506F4C2488022C30D0104603B0BDE83040AA
S31500003D60FEF758BF012BF7D16A4B6D481B88674C8D
S31500003D70674D83806B4B24880180DB6A29884480E9
S31500003D80C180002B00F09E80002103B0BDE83040CA
S31500003D90184760485D4BB0F800C01B8801F01F0053
S31500003DA043EA0C01014389B221B9594B188801280D
S31500003DB000F082801046FEF72DBF5B4C01F01F011C
S31500003DC00129238000F0908002297DD00029C3D1EB
S31500003DD0504B1B88002BBFD10190FFF72FFC534B94
S31500003DE020701B88019A012B04BF40F0020020704E
S31500003DF002204D49A4E7474B1B882343ACD14949D0
S31500003E00434B096818880B78834299D8184697E778
S31500003E100190FCF77BFC0128019A9DD13D4B1B8844
S31500003E20234399D11046FFF7D3F83E4B384CD3E9DC
S31500003E300213C02818BF19462488C8788B78019ABF
S31500003E4003EB002398B2A0427FF67AAF204677E7CD
S31500003E50344B93F83010A1427FF67EAF19692C4B94
S31500003E6051F8241018880B788342CFD968E7294B7C
S31500003E701B8823437FF470AF0190FFF7A9F8244C09
S31500003E80284B2488D3E90213C02808BF1946D4E773
S31500003E900190FCF73BFC0128019A7FF45DAF1D4BB6
S31500003EA01B8823437FF458AF1E49194B496818886D
S31500003EB00B788342AAD943E71D4B1E491B880B701A
S31500003EC0FFF70CB903B030BD124D2B881B0733D159
S31500003ED090F820000192FEF72DFA10F0020F019AD9
S31500003EE086D00123237083E70190FEF771FE012837
S31500003EF0019A7FF431AFFFF713FB064B019A1B883B
S31500003F008342FFF475AF27E7681100206A1100208D
S31500003F105E1100205C110020E40E0020E01100205C
S31500003F2060110020E4100020E81100205A11002042
S31500003F30E2100020E41100200190FEF749FE01285E
S31500003F40019A7FF409AF11462888FCF7B5FBFF28D4
S31500003F500146019A3FF400AF1046FEF7DBFF10F072
S31500003F60020F019ABDD143E7FEF754BEF0B5AE4D40
S31500003F7004462A888DB002F47F43B3F5A06F00F0A3
S31500003F8085801DD9B3F5106F00F09080B3F5306FC2
S31500003F9009D1FEF71DFE012805D12B8803F01F036A
S31500003FA0012B00F0BB802046FEF734FE9F4E33887F
S31500003FB0012B2AD021460020FFF7FCF80DB0F0BDFA
S31500003FC0B3F5807F46D0B3F5407FECD1984B1B8884
S31500003FD0002BE8D112F01F0200F0DE80022AE2D1A7
S31500003FE0944B1B88002BDED1934B1888020707D011
S31500003FF02146FCF761FBFF28D5D02146FEF704FEDB
S3150000400000212046FEF7CEFFD0E78D2300278DF84E
S315000040100F3094F8203087498DF80C30864B09888C
S315000040201B882A88ADF81C30814BADF81A101B8806
S3150000403003A90820ADF81820ADF81E300597ADF895
S315000040401070FEF7D5FF214600203780FFF7B2F843
S315000040500DB0F0BD764B1B88002BA4D112F01F02C9
S3150000406000F08480022A9ED1724B1B88002B9AD1C5
S31500004070714B1B8813F00F0140F097800191FEF7FA
S3150000408097FF20460199FEF78DFF8FE76A4B684937
S315000040901B88098802F01F020B431A4392B2002ABA
S315000040A081D1644B1B887F2BAAD97CE7D3067FF48A
S315000040B07AAF624B5F4F9A683B8852799A4202D038
S315000040C0002B7FF470AF5C4A594B168819880E4353
S315000040D0B6B2002E7FF467AF31462046FEF762FF88
S315000040E03B88002B3FF462AF554A12889A423FF450
S315000040F05DAFFFF709FAFFF713FA074638B1304606
S3150000410000210136FFF73CFAB0B28742F8D82046C4
S31500004110FCF796FD2046FCF743FD47E7FFF700FA5C
S31500004120454E33889842FFF43EAF414A1788002F28
S315000041307FF439AF1846FFF7F9F93E4B1B889842D2
S31500004140FFF431AF328839463E4FDBB2204627F8BE
S315000041501230FEF727FFFFF7D7F9308837F810102F
S31500004160FFF70EFA2046FCF71BFD1FE7314B1B88B5
S31500004170012B7FF418AF304B1E88002E7FF413AF4F
S31500004180FFF74EFA01287FF40EAF2F4B314620463B
S315000041901E80FEF707FF09E7264B1B88012B5DD023
S315000041A0022B2BD0FFF7B0FC00E701461846FCF7C0
S315000041B083FAFF2806463FF4F6AE01462046FEF790
S315000041C0A9FE01283146204659D0FEF7F1FE3146B8
S315000041D02046FEF7E9F900212046FEF7E3FE1B4BD9
S315000041E033F81620012A7FF4E1AE00221849204652
S315000041F00F6823F816201146B847D7E6FEF7E8FE03
S31500004200C0287FF4D0AE0C4B1B88A3F58042110466
S315000042107FF5C9AE01260F490F4A0B8020460021C3
S315000042201680FEF7BFFEC1E668110020841100204B
S315000042305E1100206A1100205C110020E4100020AD
S31500004240E2100020E40E00205A1100207011002018
S315000042506C11002088110020861100200D4B1E884D
S31500004260002E7FF4A0AEFFF7DBF901287FF49BAEAA
S31500004270094B314618802046FEF794FE96E6FDF778
S31500004280C3FB31462046FEF78FF931462046FEF73E
S3150000429089FEA0E75C1100205A110020F0B5274ED8
S315000042A0044633888BB003F47F43B3F5006F06D022
S315000042B013D9B3F5206F02D0B3F5406F12D1204D5C
S315000042C000212046FEF76EFE2B88012B11D02146D9
S315000042D00020FEF76FFF0BB0F0BD002BEFD0B3F55B
S315000042E0C06FECD0164D2046FEF794FC2B88012BB0
S315000042F0EDD18D2300278DF8073094F82030114931
S315000043008DF80430104B09881B883288ADF81430BC
S315000043100E4BADF812101B8801A90820ADF810202D
S31500004320ADF816300397ADF80870FEF761FE21462A
S3150000433000202F80FEF73EFF0BB0F0BD6811002075
S31500004340841100206A1100205C1100205E110020FB
S31500004350F0B5204E044633888BB003F47F43B3F5A3
S31500004360E06F0BD01C4DFEF755FC2B88012B0CD0B3
S3150000437021460020FEF71EFF0BB0F0BD164D0021B2
S31500004380FEF710FE2B88012BF2D18D2300278DF826
S31500004390073094F8203011498DF80430104B098805
S315000043A01B883288ADF814300E4BADF812101B88FE
S315000043B001A90820ADF81020ADF816300397ADF826
S315000043C00870FEF715FE214600202F80FEF7F2FE4C
S315000043D00BB0F0BD68110020841100206A11002086
S315000043E05C1100205E110020024630B500250C4607
S315000043F08BB05168006804AB03C329462046FEF71C
S31500004400D1FD8D2394F8202001A908208DF80420E1
S315000044108DF807300395ADF80850FEF7E9FD044B1B
S31500004420214628461D80FEF7C5FE0BB030BD00BFF5
S3150000443084110020024630B500250C468BB0516829
S31500004440006804AB03C329462046FEF7ABFD8D2268
S315000044500C49BDF81630086894F820101B1A8DF820
S315000044600410082001A903938DF80720ADF8085021
S31500004470FEF7BEFD044B214628461D80FEF79AFE38
S315000044800BB030BDF00B00208411002010B50346A0
S3150000449000888CB000F06000202801D0402806D1AA
S315000044A005295FD8DFE801F02F19501957354FF06D
S315000044B08D0E92F820C000221868596806AB8DF858
S315000044C00FE003C3072003A98DF80CC00592ADF8D1
S315000044D01020FEF78DFD0CB010BD00244FF08D0CA2
S315000044E01868596892F8202006AB8DF80C2003C393
S315000044F0072003A90594ADF810408DF80FC0FEF70C
S3150000450077FD0CB010BD00231A491B4A0B8013809F
S31500004510E1E700244FF08D0C1868596892F820E006
S3150000452006AB03C303A9072001928DF80CE005949E
S31500004530ADF810408DF80FC0FEF75AFD019A2046DF
S315000045401146FEF737FEC6E7114618460CB0BDE821
S315000045501040FFF749BF114618460CB0BDE81040A1
S31500004560FFF768BF114607200CB0BDE81040FEF704
S3150000457021BE00BF58110020841100200346024AC4
S3150000458000201A60704700BF544457490020FF229C
S31500004590014B18701A70704700320840002203461B
S315000045A010461A60704700BF0B0A10B41B01064C78
S315000045B053FA81F154F821300020C3F340035DF82B
S315000045C0044B1370704700BF00080840090A4901F0
S315000045D001F1804101F500214B68002013807047EE
S315000045E0090A490123EA020C01F180411A4001F54A
S315000045F0002142EA0C4200208A6070470123C8B2BB
S3150000460083404AB91A040B0A5B0103F1804303F5A0
S31500004610002300209A6070479AB2F4E7090A49011C
S3150000462001F1804101F5002110B40C6802EA030C87
S315000046304CEA040C62EA030202EA0C0200205DF86E
S31500004640044B0A60704700BF090A490101F1804125
S3150000465001F500214B680020C3F30F431380704718
S31500004660012310B44FEA112C4FEA4C1C0CF1804C7C
S315000046700CF5002CDCF80440C9B203FA01F18BB248
S3150000468001EA1441C91AB1FA81F1490900205DF81D
S31500004690044B1170704700BF090A490123EA020C56
S315000046A001F180411A4001F5002142EA0C42002046
S315000046B0CA60704706207047012A14D04FF4803034
S315000046C00B0A5B0103F1804303F5002310B4CAB261
S315000046D0DC6800FA02F22243120C120400205DF894
S315000046E0044BDA6070470B0A5B0103F1804303F564
S315000046F00023D868C9B28A40024392B20020DA6029
S31500004700704700BF38B50488002C4CD000214368A0
S3150000471040F20245043303EBC40040F2034C40F27E
S31500004720044E0C460FE062452FD153F8042C02F0DC
S31500004730B852B2F1807F14BF41F0020144F0020486
S315000047400833834210D01A88AA42ECD153F8042CBD
S31500004750083302F0B852B2F1807F14BF41F0010174
S3150000476044F001048342EED1C943CDB2012000F0EA
S31500004770EFFC0E4B012093F8BB2414432C4083F826
S31500004780BB44BDE8384000F0B3BC7245D8D153F8FD
S31500004790042C02F0B852B2F1807F0CBF44F004043E
S315000047A041F00401CCE7FF25E0E700BF00E001404F
S315000047B0F8B50446FFF7A6FFEFF31082012383F353
S315000047C01088284E33681BB92749CB704023CB701D
S315000047D033680133336082F3108823887BB36268C1
S315000047E003F1FF3E1FFA8EFE02F108011F4C01EB9A
S315000047F0CE0E08E0D2B21B0113448E450A4644F899
S3150000480023001CD008311068928810F4803F4FEACC
S315000048101223EFD0130AD2B202EB031C54F82C7009
S315000048201B01134420F480356FF310478E4544F87E
S315000048302C700A4644F82C5044F82300E2D1EFF3DA
S315000048401082012383F31088336813B13368013B68
S31500004850336033681BB980200349CB70C87082F37C
S315000048601088F8BD2C120020000D084000080840F2
S3150000487008B5034B03600846FFF79AFF002008BD02
S3150000488054524F5008B50846FFF792FF002008BD66
S3150000489070B5012684B002AB68460C4615460193F6
S315000048A0ADF80060ADF80C100292FFF72BFFEFF3A6
S315000048B0108286F310881D490B681BB940261C48D8
S315000048C0C370C6700B6801330B6082F31088EA036D
S315000048D04FEA1423E4B219D41B01164A234442F8C2
S315000048E02350EFF31082012383F310880B6813B172
S315000048F00B68013B0B600B681BB980200C49CB7021
S31500004900C87082F31088002004B070BD094A04EB19
S31500004910031052F820601B016FF3104642F8206026
S3150000492025F4803642F82060D7E700BF2C1200201D
S31500004930000D084000080840F0B5012100243A4B5C
S3150000494080F83440394A83F816148446186A116888
S315000049501B6AC0F3026201FA02F2354DC0F302701F
S31500004960C3F30263C2409940AA4221FA03F157D920
S31500004970304802F5742202F23F2201F57423A0FBAF
S31500004980021203F23F23A0FB0313920C2A4902F5FD
S31500004990F052A1F8E42043F6B851204644F25064A0
S315000049A040F6D8665425254F9B0C03FB07F7244A8F
S315000049B003FB01F1A2FB07E7BF08CCF81870A2FBC6
S315000049C0017103FB04F48908CCF808101D49A2FB09
S315000049D0047403FB01F1A408CCF82440A2FB0141B6
S315000049E08908CCF82010184903FB06F603FB01F1F1
S315000049F003FB05F55B00A2FB0676A2FB0575A2FB91
S31500004A000343A2FB0112B608AD089B089208CCF836
S31500004A100C60CCF81450CCF81030CCF81C20F0BD4B
S31500004A204FF4FB70F0BD00BF00E00140B81300205A
S31500004A30FF083D0083DE1B4300E07F4038AF0400E3
S31500004A40ABAAAAAA80DE0F00A0F703004FF4964394
S31500004A5010B4426883B00193137803BB4AF68023EF
S31500004A60274AA2F88430B2F884309BB2802B08D152
S31500004A7010E0019B013B0193B2F884309BB2802B7E
S31500004A8008D0019B002BF4D14FF4FA7003B05DF807
S31500004A90044B7047002003B05DF8044B704792F951
S31500004AA01130184803F1C00150F821406FF310444B
S31500004AB040F82140012103F01F045B099B0003F12C
S31500004AC0604303F5614301FA04F4C3F880411C60B6
S31500004AD092F9132002F1C00350F823406FF31044FB
S31500004AE040F8234053099B0002F01F0203F1604384
S31500004AF001FA02F203F56143C3F880211A60ADE7BB
S31500004B0000E07F40006000400B782DE9F047044646
S31500004B10416053B92E4A137613752046FFF70CFFF2
S31500004B2008B92C4B2360BDE8F087012000274FF021
S31500004B3098094B68DFF898E0A363CB68E7632364C2
S31500004B408EF818000A7C91F91130234EDFF890C0D8
S31500004B501201224D06EB0308D2B288F800234CF866
S31500004B60234003F1C0085A0955F828A0920003F023
S31500004B701F0302F1604200FA03F302F5614267F394
S31500004B80104A45F828A0C2F8803113608EF81490B8
S31500004B908B7C91F913201B01DBB2164486F8003397
S31500004BA002F1C0014CF82240530902F01F0200FA3C
S31500004BB002F29B0055F8210003F1604303F56143BF
S31500004BC067F3104045F82100C3F880211A60A4E776
S31500004BD000E07F404E45504F00E100E0006000409D
S31500004BE03012002070B500245B08B2F1006FC0E9F6
S31500004BF00A1280F83440036303D2BDE8704000F027
S31500004C00ABBB0546FFF722FF0446B8B96B681B78B5
S31500004C10B3B9EE6808E018224FF4805100F094FB17
S31500004C202B6B04468BB1B8B932460421284600F0F6
S31500004C3083FB6B6804461B78002BECD0204670BDC6
S31500004C400123064685F83430EEE700F08DFB002C94
S31500004C5008BF0446204670BD00F086FB204670BDA6
S31500004C600023B1F1006F70B5054680F834300ED2DE
S31500004C70BDE87040B1F5803F35BF21F4FF5121F406
S31500004C80FF4121F01F0121F07F0100F045BB21F01B
S31500004C903F0181620263FFF7D9FE064650BB6B688F
S31500004CA01B78D3B9EE680122144BA3F8E02008E084
S31500004CB019224FF4005100F047FB2B6B044683B1D9
S31500004CC0A8B932464021284600F02EFB6B68044600
S31500004CD01B78002BECD0204670BD022385F83430BB
S31500004CE0E1E700F041FB002C08BF0446F3E700F0C3
S31500004CF03BFBF0E74FF4FA74EDE700BF00E07F40BE
S31500004D000E4BC0E90031EFF31081012383F31088C5
S31500004D100B4B9A6822F002029A609B6881F3108816
S31500004D2000214068074A437800789B01DBB20343C1
S31500004D3043F0800313700846517070474352430096
S31500004D40004008400080104010B5436893F800E02A
S31500004D500BC9BEF1010F29D0AEF1020C5FFA8CF43B
S31500004D60012C1BD81F4C89B221810EF1FF3102297B
S31500004D701AD9800807D01B4C03EB800053F8041B9C
S31500004D8083426160FAD15FFA8CFCBCF1010F154BCE
S31500004D9020D81B8900209BB2136010BD114CA16066
S31500004DA00EF1FF310229E4D820B9ECE70D4CC9B267
S31500004DB0217248B10B4C184413F8011B8342217130
S31500004DC0FAD1BEF1010F09D1064B00201B7ADBB2E6
S31500004DD0136010BD9B680020136010BDAEF1020C7D
S31500004DE0D1E700BF0080104043681B78012B08D034
S31500004DF0023B012B084B0AD81B8900209BB20B6093
S31500004E007047054B00201B7ADBB20B6070479B682E
S31500004E1000200B60704700BF00801040064B07491A
S31500004E2093F826001A6A51F82030C2F30262044948
S31500004E30D3400B60704700BF00E00140EC06002045
S31500004E40B81300204AF2035001234A494A4A70B572
S31500004E50A1F8FE03A2F80431B2F804319BB2002B8C
S31500004E60FAD14FF0010E4FF400414FF0090C434CBC
S31500004E70434E40486660434E434DE660434E66618E
S31500004E80A2F800E1424A2560A261A16090F82620BE
S31500004E902161016A54F822203E4DC1F30261CA40E5
S31500004EA02A6080F8133480F8A2C090F88024002A83
S31500004EB056D140F26320012100232E4A508782F802
S31500004EC0391082F8363092F83C30D907FBD50023EA
S31500004ED042F6117C42F211702649A2F848C082F8C7
S31500004EE04A30108582F82A3091F83C309B06FBD573
S31500004EF001200522204B4FF0F10C83F81C01264BB4
S31500004F0081F826200B6291F82630086A54F823208F
S31500004F10C0F30260C2400024F020204B2A6083F8D0
S31500004F200CC01C72187391F87430124A43F0400397
S31500004F3081F8743092F87430DB09FBD006234620E2
S31500004F400C4982F86C3082F8740082F8743091F85B
S31500004F507430DB09FBD14FF42543A1F8FE3370BD55
S31500004F604FF47A7180F8813480F88034084600F076
S31500004F701FF89EE700E0014000C00140EC0600205B
S31500004F8000127A0000366E01002D310100C2EB0BD3
S31500004F90001C4E0EB81300202112022100200040F2
S31500004FA0704700BFA0F101000028FBD1704700BF89
S31500004FB010B54FF47A72164C164B24684FF0000E5B
S31500004FC0B3FBF4FC4FF0FF3300FB01F1A1FB02043D
S31500004FD083427EEB040407D3B0FBFCF0800880B16B
S31500004FE0BDE81040FFF7DEBF4FEA8C0CB1FBFCF1C9
S31500004FF0A1FB02128B427EEB020203D30846002875
S31500005000EED110BD1846BDE81040FFF7CBBF00BF7C
S31500005010B813002000CA9A3B70B500240A4B0B4E09
S31500005020B3F84051ADB225FA04F3DB07E0B203D57D
S3150000503056F8243003B198470134102CF3D1024BB3
S31500005040A3F8305170BD00BF00600040EC11002095
S3150000505030B56FF0FF0585B0032000F079F84FF00A
S31500005060FF311F4C1F482246856400230125CDE9E8
S315000050700111039104F1C00E32F8020F590960B113
S3150000508004A800EB810151F80C0C03F01F0C05FA83
S315000050900CFC20EA0C0041F80C0C724503F10103EC
S315000050A0EAD10199104B0F4A03201167C3F8801209
S315000050B002995167C3F8841203999167C3F888125D
S315000050C000F016F80023094803F1C00234F8021F65
S315000050D00133602B40F82210F6D105B030BD00BF79
S315000050E06A5600000080004000E100E000600040D9
S315000050F0EFF31081012383F31088124B33F810204D
S3150000510092B22AB133F81020013A92B223F8102055
S3150000511033F810309BB293B90B4A10B4B2F8FE3391
S315000051200A4C9BB234F8100043F4254323EA0003EB
S31500005130A2F8FE3381F310885DF8044B704781F3C3
S3150000514010887047B013002000E001406C57000043
S3150000515030B4EFF31081012383F310880E4A32F83E
S3150000516010309BB26BB90D4C0D4DB4F8FE3335F8CB
S3150000517010C09BB243EA0C0343F425439BB2A4F848
S31500005180FE3332F8103001339BB222F8103081F32F
S31500005190108830BC704700BFB013002000E001400B
S315000051A06C57000000BE704708B500F003F8FCF726
S315000051B005FBFEE74FF47001234B244A70B500202F
S315000051C0C3F888109A60FCF78FF8FFF73BFE0120C2
S315000051D0FCF78AF81E4B83F30A881E481E4A0021F4
S315000051E0121A00F054F81D481D4A1E49121A00F002
S315000051F041F81D4D1D4B5B1B002B07DD00249E1047
S3150000520055F8043B01349847A642F9DCFFF706FE41
S315000052100320FFF79DFF00234FF6FF70144903F1AB
S3150000522008020133092B21F81200F8D10320FFF7F9
S315000052305FFF0220FCF758F8FFF70AFFBDE8704051
S315000052400020FFF7ADBE00BF00ED00E0000000004B
S31500005250C023002008070020BC1300200000002007
S31500005260EC060020805D0000E4060020E806002031
S31500005270000D08400A44431E914200D1704710B504
S3150000528011F8014B914203F8014FF9D110BD0244C8
S315000052900346934200D1704703F8011BF9E7034622
S315000052A013F8012B002AFBD1181A01387047FFFFAB
S315000052B04275696C7420776974682052656E6573EF
S315000052C0617320416476616E63656420466C65781F
S315000052D069626C6520536F667477617265205061F0
S315000052E0636B6167652076657273696F6E20332E16
S315000052F0352E3000332E352E300000000000050319
S31500005300F8B500BFF8BC08BC9E467047F8B500BFAC
S31500005310F8BC08BC9E46704701B40248844601BCEE
S31500005320604700BF5104002001B40248844601BC16
S31500005330604700BF9D01002001B40248844601BCBD
S31500005340604700BFED01002001B40248844601BC5D
S31500005350604700BF7102002001B40248844601BCC8
S31500005360604700BF0504002001B40248844601BC22
S31500005370604700BF010000205465726D696E616C64
S3150000538000FFFFFF00000000000054545220524569
S315000053904747455300FFFFFF303132333435363748
S315000053A0383941424344454634060020F80500207A
S315000053B00000000000000000C406002004000000F9
S315000053C00104100000042E309962FFFF0401000062
S315000053D00501000006010000070100000D010000A4
S315000053E000020000300101020204080408FFFFFF6A
S315000053F00D0A525F5553425F4F70656E20666169B4
S315000054006C65642E0D0A00005B4552525D20496EA4
S315000054102046756E6374696F6E3A20257328292CB1
S31500005420202573000D0A52657475726E65642045F9
S3150000543072726F7220436F64653A20307825782047
S31500005440200D0A004E2F41000D0A55534220526589
S3150000545071756573742E20496E6465783A202564EB
S315000054602C20547970653A20253034782C205661EA
S315000054706C75653A20253034782C204C656E67743F
S31500005480683A2025640D0A000D0A555342205265DC
S31500005490717565737420436F6D706C6574652E202D
S315000054A0496E6465783A2025642C20547970653AF3
S315000054B020253034782C2056616C75653A202530CD
S315000054C034782C204C656E6774683A2025640D0A82
S315000054D00000000056616C766520536F6674776134
S315000054E072650000537465616D20436F6E74726F50
S315000054F06C6C657220426F6F746C6F6164657200CC
